:100000000C9430000C940D090C940D090C940D09FE
:100010000C940D090C940D090C940D090C940D0908
:100020000C940D090C940D090C940D090C940D09F8
:100030000C940D090C940D090C940D090C940D09E8
:100040000C940D090C940D090C940D090C940D09D8
:100050000C940D090060007000122800700071807F
:1000600011241FBECFE5D8E0DEBFCDBFE4E5F0E050
:1000700040E017C0B591A59135912591059107FDF7
:100080000CC095918591EF01F92FE82F05900D9205
:10009000A217B307D9F7FE0104C01D92A217B30738
:1000A000E1F7E036F40731F70E94B9040C94D30865
:0400B000F894FFCFF2
:1000B4004E6F726D616C0074656D706572617475FC
:1000C40072653D2000486F74004E4F524D414C20E4
:1000D40000454E5445522050415353574152443ADF
:1000E400007375636365737366756C2070617373F5
:1000F40000202020202057726F6E67207061737378
:0C010400004D4F44453D204669726500E7
:100110002F923F924F925F926F927F928F929F9217
:10012000AF92BF92CF92DF92EF92FF920F931F9305
:10013000CF93DF93CDB7DEB760970FB6F894DEBFED
:100140000FBECDBF29833A834B835C836D837E834F
:10015000382E292EA0E00E94C70821F480E30E94D7
:100160009406E6C029813A814B815C816D817E8154
:10017000A0E00E94C708ACF48DE20E949406298199
:100180003A814B815C816D817E81832D922D0E940D
:10019000A90829833A834B835C836D837E83382E41
:1001A000292E29813A814B815C816D817E81832D4D
:1001B000922DA0E00E94C70809F094F5B9C02D85E2
:1001C000392D482D572D662D752D8E85942D01E0E6
:1001D0000E944F08822E932E48875F83B62FA72F49
:1001E000F82FE92F02E00E944F08A22EB32EC42E52
:1001F000D52EE62EF72E082F192F282D392D4885BC
:100200005F816B2F7A2F8F2F9E2F0E94DE082D8704
:10021000932E842E752E662E572E8E87492E0FC054
:1002200081E01F82188619861A861B861E861C8608
:100230008D87912C812C712C612C512C412CAD84FB
:10024000B92CC82CD72CE62CF52C0E85142D298121
:100250003A814B815C816D817E81832D922D0E943C
:10026000BB08A0E00E94C70809F0A9CF9F8288863A
:1002700079866A865B864C860F2EFAE0AF2EF02DCB
:10028000B12CC12CD12CE12CF12C00E010E02D85FB
:100290003F81488559856A857B858E859C850E942E
:1002A000BB08422E532E642E752E862E972E888BD9
:1002B0009F872D873F83488759876A877B878E87EB
:1002C0009C87A22EB32EC42ED52EE62EF72E082FF5
:1002D000192F29813A814B815C816D817E81832D2B
:1002E000922D0E94BB0880E3820F0E949406088929
:1002F0001F8529813A814B815C816D817E81832DAF
:10030000922D0E94B90829833A834B835C836D83C5
:100310007E83382E292E242D352D462D572D682DE0
:10032000792D802F912FA1E00E94C70809F0A4CF5A
:1003300060960FB6F894DEBF0FBECDBFDF91CF91B0
:100340001F910F91FF90EF90DF90CF90BF90AF90F3
:100350009F908F907F906F905F904F903F902F90E5
:020360000895FE
:100362000F931F93CF93DF930E9493070E9402097A
:1003720060E080E00E94680865ED70E080E00E9425
:10038200340860E081E00E946808C0E00CC00E946E
:100392001805C82F2FEB87E299E02150804090404A
:1003A200E1F700C00000CC2391F38AE20E94940698
:1003B20089EF90E00197F1F700C00000D0E00CC097
:1003C2000E941805D82F9FEB27E289E09150204028
:1003D2008040E1F700C00000DD2391F38AE20E9431
:1003E200940689EF90E00197F1F700C0000010E059
:1003F2000CC00E941805182F9FEB27E289E091504C
:1004020020408040E1F700C00000112391F38AE20E
:100412000E94940689EF90E00197F1F700C0000076
:1004220000E00CC00E941805082F9FEB27E289E02C
:10043200915020408040E1F700C00000002391F37A
:100442008AE20E94940689EF90E00197F1F700C0DA
:100452000000C13319F5D23309F51333F9F404332B
:10046200E9F481E0809370000E94020960E081E07B
:100472000E94680865EE70E080E00E9434089FEBFD
:1004820027E289E0915020408040E1F700C000005F
:100492008BB3877F8BBB83E085BB17C00E940209A9
:1004A20060E081E00E94680865EF70E080E00E94F1
:1004B20034089FE72FE482E1915020408040E1F729
:1004C20000C000000E94020951CFDF91CF911F911D
:0404D2000F910895E9
:1004D600813061F138F0823009F44CC0833009F480
:1004E6006DC00895413099F028F0423049F043300C
:1004F600B9F008958BB3607F8F70682B6BBB08953E
:100506008BB362956F70807F682B6BBB089580E11B
:10051600689FB00111248BB38F70682B6BBB089555
:100526008BB36F70807F682B6BBB0895413099F059
:1005360028F0423049F04330B9F0089588B3607F1F
:100546008F70682B68BB089588B362956F70807F43
:10055600682B68BB089580E1689FB001112488B3B9
:100566008F70682B68BB089588B36F70807F682B87
:1005760068BB0895413099F028F0423049F0433085
:10058600B9F0089585B3607F8F70682B65BB0895B9
:1005960085B362956F70807F682B65BB089580E197
:1005A600689FB001112485B38F70682B65BB0895D1
:1005B60085B36F70807F682B65BB0895413099F0D5
:1005C60028F0423049F04330B9F0089582B3607F95
:1005D6008F70682B62BB089582B362956F70807FBF
:1005E600682B62BB089580E1689FB001112482B335
:1005F6008F70682B62BB089582B36F70807F682B03
:0406060062BB089536
:10060A00442319F04130C9F10895813091F028F05E
:10061A008230D9F0833029F108952AB381E090E03D
:10062A0002C0880F991F6A95E2F7809582238ABBD8
:10063A00089527B381E090E002C0880F991F6A9558
:10064A00E2F78095822387BB089524B381E090E086
:10065A0002C0880F991F6A95E2F78095822384BBAE
:10066A00089521B381E090E002C0880F991F6A952E
:10067A00E2F78095822381BB0895813089F028F0C2
:10068A008230C9F0833011F108952AB381E090E0F5
:10069A0002C0880F991F6A95E2F7822B8ABB0895D8
:1006AA0027B381E090E002C0880F991F6A95E2F7AC
:1006BA00822B87BB089524B381E090E002C0880FA3
:1006CA00991F6A95E2F7822B84BB089521B381E0D2
:1006DA0090E002C0880F991F6A95E2F7822B81BBCE
:0206EA00089571
:1006EC00442319F04130C9F10895813091F028F07C
:1006FC008230D9F0833029F108952BB381E090E05A
:10070C0002C0880F991F6A95E2F7809582238BBBF4
:10071C00089528B381E090E002C0880F991F6A9574
:10072C00E2F78095822388BB089525B381E090E0A1
:10073C0002C0880F991F6A95E2F78095822385BBCA
:10074C00089522B381E090E002C0880F991F6A954A
:10075C00E2F78095822382BB0895813089F028F0DE
:10076C008230C9F0833011F108952BB381E090E011
:10077C0002C0880F991F6A95E2F7822B8BBB0895F4
:10078C0028B381E090E002C0880F991F6A95E2F7C8
:10079C00822B88BB089525B381E090E002C0880FBE
:1007AC00991F6A95E2F7822B85BB089522B381E0ED
:1007BC0090E002C0880F991F6A95E2F7822B82BBEA
:0207CC0008958E
:1007CE0010C00E94EE0858F00E94E70840F029F48D
:1007DE005F3F29F00C94FC0851110C94F6080C9410
:1007EE000A090E94F30768F39923B1F3552391F395
:1007FE00951B550BBB27AA2762177307840738F082
:10080E009F5F5F4F220F331F441FAA1FA9F335D0DE
:10081E000E2E3AF0E0E832D091505040E695001C92
:10082E00CAF72BD0FE2F29D0660F771F881FBB1F4C
:10083E00261737074807AB07B0E809F0BB0B802D2A
:10084E00BF01FF2793585F4F3AF09E3F510578F056
:10085E000C94FC080C94F6085F3FE4F3983ED4F336
:10086E00869577956795B795F7959F5FC9F7880F2A
:10087E00911D9695879597F90895E1E0660F771F7C
:10088E00881FBB1F621773078407BA0720F0621B0D
:0E089E00730B840BBA0BEE1F88F7E0950895DC
:1008AC008FEF99EF0197F1F700C0000041E061E094
:1008BC0081E00E94050341E062E081E00E940503B3
:1008CC0041E063E081E00E94050341E064E080E0E8
:1008DC000E94050341E065E080E00E94050341E0D1
:1008EC0066E080E00E94050341E067E080E00E9442
:1008FC00050383E30E9451068FE99FE00197F1F70E
:10090C0000C0000082E30E9451068FE99FE001972E
:10091C00F1F700C0000088E20E9451068CE00E94B2
:10092C0051068FE99FE00197F1F700C0000081E0CC
:10093C000E9451068FE39FE10197F1F700C0000080
:10094C0086E00E9451068FE99FE00197F1F700C005
:10095C00000082E00E9451068FE39FE10197F1F7BE
:06096C0000C00000089528
:100972000E9456040E9415088BB341E063E00E9476
:1009820005038FEF84BB41E063E083E00E9405032F
:1009920041E067E082E00E94050341E062E082E01C
:1009A2000E94050341E063E080E00E94050381E0CC
:1009B2000E948008BC01660F771F880F991F880F5D
:1009C200991F880F991F680F791F80E090E00E949D
:1009D2001A0720E030E04CEC52E40E9406090E9423
:1009E200C407262F30E02E31310524F4862F0E94D1
:1009F2005707DDCF2F35310524F4862F0E94BA0523
:100A0200D6CF2F35310544F080917000811104C09A
:100A1200C9010E94D706CBCF2F35310544F2809110
:0E0A22007000813021F6C9010E940906C0CF84
:100A3000CF93DF93A0E0B0E080E044C098B39D0185
:100A40002C5F3F4FE1E0F0E002C0EE0FFF1F2A9560
:100A5000E2F72E2F2095922398BB40E050E02BC068
:100A600023B3BA016D5F7F4F30E0062E02C035958B
:100A700027950A94E2F720FD1CC02FE738E391E0A8
:100A8000215030409040E1F700C0000023B330E037
:100A900002C0359527956A95E2F720FD0AC0EA0164
:100AA000CC0FDD1FCC0FDD1FC05ADF4FCA0FDB1F7D
:100AB00088814F5F5F4F4430510594F298B3E92B22
:100AC000E8BB1196A430B1050CF4B8CFDF91CF91FB
:020AD000089587
:100AD20088249924F401E401B0E49F93AA279A158B
:100AE2008B049C04ED05FE05CF05D007A10798F401
:100AF200AD2FDC2FCF2FFE2FE92D982C892E982F8A
:100B0200872F762F652F542F432F322F2227B8504D
:100B120031F7BF9127C01B2EBF91BB27220F331F76
:100B2200441F551F661F771F881F991F881C991C19
:100B3200EE1FFF1FCC1FDD1FAA1FBB1F8A149B04C1
:100B4200EC05FD05CE05DF05A007B10748F08A18C0
:100B52009B08EC09FD09CE09DF09A00BB10B21604E
:100B62001A94E1F62EF49401AF01BE01CD01000CFE
:020B72000895E4
:100B7400CF93C82F1092700040E067E082E00E949B
:100B8400760341E062E082E00E94760340E063E0A5
:100B940083E00E94760341E063E080E00E947603F4
:100BA4002FE986E891E0215080409040E1F700C0B1
:100BB400000040E063E080E00E9476030E940209A6
:100BC40060E080E00E94680869EC70E080E00E94C8
:100BD400340860E081E00E9468086BEB70E080E01C
:100BE4000E9434082C2F30E040E050E060E070E0D8
:100BF40080E090E00E9488002FE387E79BE121508A
:0E0C040080409040E1F700C00000CF910895BD
:100C1200CF93C82F41E067E082E00E94760341E073
:100C220062E082E00E94760341E063E083E00E949A
:100C320076038BB3877F8BBB0E94020960E080E062
:100C42000E9468086DEC70E080E00E94340860E069
:100C520081E00E9468086BEB70E080E00E9434083B
:100C62002C2F30E040E050E060E070E080E090E067
:100C72000E9488002FEF84E39CE021508040904046
:100C8200E1F700C0000083E085BB2FE387E79BE12B
:100C9200215080409040E1F700C00000CF910895BC
:100CA200CF93C82F40E061E081E00E94760340E0EC
:100CB20062E081E00E94760340E063E081E00E940E
:100CC20076038FE99FE00197F1F700C0000041E051
:100CD20063E081E00E94760340E06C2F80E00E9496
:100CE2006B0240E063E081E00E9476038FE99FE0BF
:100CF2000197F1F700C0000041E063E081E00E944B
:100D0200760341E06C2F80E00E946B0240E063E0DA
:100D120081E00E9476038FE99FE00197F1F700C01E
:060D22000000CF910895CE
:100D2800CF93C82F41E061E081E00E94760340E064
:100D380062E081E00E94760340E063E081E00E9487
:100D480076038FE99FE00197F1F700C0000041E0CA
:100D580063E081E00E94760340E06C2F80E00E940F
:100D68006B0240E063E081E00E9476038FE99FE038
:100D78000197F1F700C0000041E063E081E00E94C4
:100D8800760341E06C2F80E00E946B0240E063E054
:100D980081E00E9476038FE99FE00197F1F700C098
:060DA8000000CF91089548
:100DAE00CF93C82F40E067E082E00E94760340E0D8
:100DBE0062E082E00E94760341E063E083E00E94FD
:100DCE0076030E94020960E080E00E94680865E0F8
:100DDE0071E080E00E94340860E081E00E946808C3
:100DEE006BEB70E080E00E9434082C2F30E040E086
:100DFE0050E060E070E080E090E00E94880082E0C9
:100E0E0085BB8BB388608BBB2FE786E998E92150B1
:100E1E0080409040E1F700C000000E9402090E944D
:060E2E00B101CF9108950F
:100E3400E89409C097FB3EF4909580957095619570
:100E44007F4F8F4F9F4F9923A9F0F92F96E9BB2726
:100E54009395F695879577956795B795F111F8CFA2
:100E6400FAF4BB0F11F460FF1BC06F5F7F4F8F4F0D
:100E74009F4F16C0882311F096E911C0772321F003
:100E84009EE8872F762F05C0662371F096E8862F9B
:100E940070E060E02AF09A95660F771F881FDAF7F2
:0A0EA400880F9695879597F9089539
:100EAE00CF93C82F1092700041E067E082E00E945D
:100EBE00760341E062E082E00E94760341E063E067
:100ECE0083E00E9476030E94020960E080E00E94A7
:100EDE00680864EB70E080E00E94340860E081E016
:100EEE000E9468086BEB70E080E00E9434082C2FA3
:100EFE0030E040E050E060E070E080E090E00E9482
:100F0E0088002FE387E79BE1215080409040E1F776
:080F1E0000C00000CF9108950E
:100F260087B3806187BB87B3806287BB87B38064E2
:100F360087BB87B3806887BB88B3806188BB88B36B
:100F4600806288BB88B3806488BB88B3806888BBAE
:100F560084B3877F84BB84B38F7E84BB84B38F7D49
:100F660084BB84B38F7B84BB85B3886085BB85B324
:100F7600806185BB85B3806285BB85B3806485BB94
:020F86000895CC
:100F88000E94FB0788F09F5798F0B92F9927B7510F
:100F9800B0F0E1F0660F771F881F991F1AF0BA9515
:100FA800C9F714C0B13091F00E94F508B1E0089576
:100FB8000C94F508672F782F8827B85F39F0B93F68
:100FC800CCF3869577956795B395D9F73EF49095C8
:0E0FD8008095709561957F4F8F4F9F4F0895C4
:100FE60057FD9058440F551F59F05F3F71F04795D4
:100FF600880F97FB991F61F09F3F79F087950895B9
:10100600121613061406551FF2CF4695F1DF08C0D7
:10101600161617061806991FF1CF869571056105F4
:04102600089408958D
:10102A0087B1806487B987B18F7787B987B18F7D98
:10103A0087B986B1816086B986B1826086B986B180
:10104A00846086B986B1806286B980B791B78F709D
:0E105A00992791BF80BF86B1806886B908953E
:10106800CF92DF92EF92CF936B01E82EC0E003C0DE
:101078000E949406CF5FAE2DC6018C0F911DA11D55
:10108800FC018491A7FD80818111F2CFCF91EF906F
:06109800DF90CF900895E7
:10109E000F93083090F0982F872F762F652F542FAF
:1010AE00432F322F22270850F4CF220F331F441F15
:1010BE00551F661F771F881F991F0A95B2F70F914C
:0210CE00089583
:1010D000CF93DF9300D0CDB7DEB790E8998390EC43
:1010E0009A83E1E0F0E0EC0FFD1FE80FF11D808135
:1010F000860F0E9451060F900F90DF91CF910895B7
:101100009AB321E030E0082E02C0220F331F0A9468
:10111000E2F7209529232ABB97B1907E892B87B9C6
:1011200086B1806486B9349BFECF84B195B10895B1
:10113000092E0394000C11F4882352F0BB0F40F4E5
:10114000BF2B11F460FF04C06F5F7F4F8F4F9F4F25
:02115000089500
:101152006095709580959095309540955095219524
:101162003F4F4F4F5F4F6F4F7F4F8F4F9F4F0895AE
:10117200689401C0E8948F929F92CF93DF930E946C
:0C1182006905DF91CF919F908F90089538
:10118E000024A7FD00942A17300540055005600580
:08119E0070058005900508951D
:1011A600EC010E9412090E941109CE010E94130946
:0611B600CE010E940F09AA
:1011BC002A0D3B1D4C1D5D1D6E1D7F1D801F911F3B
:0211CC00089584
:0E11CE0000240A94161617061806090608953E
:0E11DC0000240A941216130614060506089540
:0E11EA00E894BB2766277727CB0197F9089575
:0C11F80097F99F6780E870E060E00895C0
:0812040081E00E9451060895EB
:08120C000E94E7030C9498080E
:061214009FEF80EC08953D
:04121A000C94000030
:04121E000E945800D2
:0212220008952D
:0212240008952B
:02122600089529
:101228003738392F3435362A3132332D6E303D2B4D
:00000001FF
